:100000000C94E4030C9404040C9404040C94040471
:100010000C9404040C9404040C9404040C94040440
:100020000C9404040C9404040C94881B0C94040495
:100030000C9404040C9404040C9404040C94040420
:100040000C9404040C9404040C9404040C94040410
:100050000C9404040C9404040C9404040C94040400
:100060000C9404040C9404040C9404040C940404F0
:100070000C9404040C9404040C9404040C940404E0
:100080000C9404040C9448210C940404084AD73BB3
:100090003BCE016E84BCBFFDC12F3D6C74319ABD57
:1000A00056833DDA3D00C77F11BED9E4BB4C3E917B
:1000B0006BAAAABE000000803F05A84CCDB2D44E6A
:1000C000B93836A9020C50B9918688083CA6AAAA6C
:1000D0002ABE000000803F00000A0000110E000050
:1000E000000A0000111F0000000A00000E110000AD
:1000F0000E1F1111111F000000000000001500006C
:100100000E0E0E1F0E0400616E616C6F675F7265EC
:100110006164006D637033303038206661696C0053
:100120006D637033303038206661696C00646967D4
:100130006974616C5F77726974650064696769747A
:10014000616C5F72656164004A6F794F532076304D
:100150002E322E350A0052756E6E696E6720756DEF
:1001600061696E28292E2E2E0A0057616974696E06
:100170006720666F722052462073746172742C205F
:100180006F7220707265737320476F20746F2073D5
:1001900074617274206E6F772E0A0046696E6973FF
:1001A0006865642075736574757028292E0A00527D
:1001B000756E6E696E672075736574757028292E6B
:1001C0002E2E0A000A526F756E6420656E640073ED
:1001D0006D617368206E756C6C206C6F636B007260
:1001E000656C6561736520756E68656C64206C6F05
:1001F000636B0072656C65617365206E756C6C2055
:100200006C6F636B0069735F68656C64206E756CFE
:100210006C206C6F636B006163717569726564203B
:10022000746F6F206D616E792074696D6573006104
:10023000637175697265206E756C6C206C6F636B91
:1002400000646561646C6F636B20696E206163712B
:1002500075697265202D2D2063616C6C6564206664
:10026000726F6D206B65726E656C2074687265616B
:1002700064206F6E20756E617661696C61626C6579
:10028000206C6F636B0061637175697265642074C3
:100290006F6F206D616E792074696D6573006163A5
:1002A0007175697265206E756C6C206C6F636B0084
:1002B000696E6974206E756C6C206C6F636B0042A4
:1002C0006F61726420696E697420636F6D706C6514
:1002D00074652E0A0046504741207625642E256419
:1002E0000A0046504741206661696C75726500429C
:1002F000617474657279204F4B0A004C6F772062ED
:10030000617474657279005741524E494E473A20E4
:100310004C4F5720424154544552590A004D6F7476
:100320006F7220426174746572793A2025646D564B
:100330000A004861707079626F6172642076255896
:100340002E253032580A00426F61726420494420E1
:10035000253034580A0048617264776172652076EE
:10036000657273696F6E2025582E253032580A0049
:10037000426F61726420636F6E666967204F4B0A3B
:100380000042616420436F6E666967004861707067
:1003900079626F61726420696E697420737461722E
:1003A0007465640A005541525430206F70656E6563
:1003B000642061742025640A006D656D6F72792078
:1003C00066756C6C00686561702073697A653A20A7
:1003D00025752062797465730A005F5F6D616C6CCE
:1003E0006F635F686561705F656E64203D20257096
:1003F0000A005F5F6D616C6C6F635F686561705F61
:100400007374617274203D2025700A00496E69740E
:10041000206661696C3A2025530A00666F726B0092
:100420000A70616E69633A2025530A00207468726D
:100430006561642028746964202564292027257358
:1004400027207374617475732025642072756E7330
:100450002025750A0020746872656164202874691B
:10046000642025642920756E616C6C6F636174650E
:10047000640A0044756D70696E6720746872656106
:1004800064207374617465733A0A0020504320201D
:10049000203A20253038700A002053524547203A30
:1004A00020253032700A002053502020203A202589
:1004B0003034700A002046502020203A2025303465
:1004C000700A00203C6F6D697474696E6720723029
:1004D0002D7233313E0A0044756D70696E67206A73
:1004E0006D705F6275663A0A006F7574206F6620E2
:1004F00074687265616473007363686564756C65C4
:100500006420746872656164207468617420686135
:100510006420616C726561647920657869746564D2
:100520000065786974696E67206E6F7468696E67BC
:1005300000737461636B206F766572666C6F770011
:1005400072657365727665642073706163653A20C5
:10055000257020746F2025700A00737461636B74BA
:100560006F703A2025700A00706320617420257036
:100570000A007370206F662027257327202869647E
:10058000202564292069732025700A000A7374618C
:10059000636B206F766572666C6F770A005350202C
:1005A00061626F7665002869642025642920737470
:1005B00061636B205B25702C2570290A00746872BA
:1005C000656164207461626C6520656E642061748D
:1005D0002025700A00746872656164207461626C21
:1005E000652073746172742061742025700A00752F
:1005F0006E6B6E6F776E20696E7465727275707453
:10060000002520356420202025347020202025302E
:1006100032780A003D3D3D3D3D3D3D3D3D3D3D3D4A
:100620003D3D3D3D3D3D3D3D0A00494E4445582040
:1006300020204144445220202056414C55450A0078
:1006400053746F7070656420726F626F7420617490
:1006500020783D25642C20793D25642C20616E672F
:100660006C653D2566210A007570646174655F7074
:1006700069643A206E6F20696E70757400757064DD
:100680006174655F7069643A20706964206469739D
:1006900061626C656400696E69745F7069643A20B8
:1006A000706964206E756C6C0044756D70696E675E
:1006B000206C6F672E2E2E0A006E616E00696E66CA
:1006C0000000407A10F35A00A0724E18090010A5DD
:1006D000D4E80000E87648170000E40B540200005C
:1006E000CA9A3B000000E1F50500008096980000E2
:1006F0000040420F000000A086010000001027000B
:10070000000000E803000000006400000000000A90
:1007100000000000000100000000002C76D888DCFA
:10072000674F0823DFC1DFAE59E1B1B796E5E3E4D7
:1007300053C63AE651997696E8E6C28426EB898C50
:100740009B62ED407C6FFCEFBC9C9F40F2BAA56FB2
:10075000A5F490055A2AF75C936B6CF9676DC11B81
:10076000FCE0E40D47FEF520E6B500D0ED902E0349
:1007700000943577050080841E080000204E0A0092
:100780000000C80C333333330F986E12831141EFDE
:100790008D2114893BE65516CFFEE6DB18D1844B3C
:1007A000381BF77C1D901DA4BBE424203284725EAC
:1007B000228100C9F124ECA1E53D276364696E6FD5
:1007C00070737578585B000011241FBECFEFD0E125
:1007D000DEBFCDBF12E0A0E0B1E0E4E7F1EC00E065
:1007E0000BBF02C007900D92A030B107D9F71BBE16
:1007F00015E0A0E0B2E001C01D92A33CB107E1F713
:100800000E94FE130C94B8600C94711B4F925F927F
:100810006F927F928F929F92AF92BF92CF92DF9210
:10082000EF92FF920F931F93DF93CF93CDB7DEB775
:1008300028970FB6F894DEBF0FBECDBF6B017C01C9
:1008400000E010E0C801B7010E943F078F3FD1F3DD
:10085000C69864E670E080E090E00E94361FC69A79
:1008600000E010E05E010894A11CB11C67E0462E78
:10087000512C51E0652E712C49E0842E912C8C0E68
:100880009D1E3CC00E94C406482F0F5F1F4F807CF6
:10089000803C19F0FF24F39408C03FE3F32EF422C8
:1008A0000E94C406482F0F5F1F4F20E030E0F50183
:1008B000E20FF31FC201821B930BB30102C0660F4C
:1008C000771F8A95E2F7CB01842380832F5F3F4F08
:1008D0002830310561F790E00DC08081882311F048
:1008E000C59A01C0C598C79AC7983196E815F90509
:1008F000A1F79F5F9F1510F4F501EFCF0C151D05B3
:1009000008F4C0CF0E9476088091630090E023E055
:10091000969587952A95E1F7817028960FB6F894F9
:10092000DEBF0FBECDBFCF91DF911F910F91FF9022
:10093000EF90DF90CF90BF90AF909F908F907F907F
:100940006F905F904F900895CF92DF92EF92FF9259
:100950001F93DF93CF9300D00F92CDB7DEB77C010A
:10096000162F6A010E94FE1D8F3F09F44BC0110F24
:10097000110F1064198382E090E060E00E94DA1D9C
:1009800081E0E816F10459F0E1E0EE16F10428F0F8
:10099000F2E0EF16F10451F404C01A9807C0C098B1
:1009A00005C0809162008E7F80936200CE01019627
:1009B00063E00E94E61D81E0E816F10459F0E1E0F1
:1009C000EE16F10428F0F2E0EF16F10451F404C041
:1009D0001A9A07C0C09A05C0809162008160809316
:1009E00062009A8180E02B8130E0822B932B26E0FD
:1009F000969587952A95E1F7F601918380830E9469
:100A0000F41D80E00F900F900F90CF91DF911F9118
:100A1000FF90EF90DF90CF900895FF920F931F9378
:100A2000DF93CF93CDB7DEB7A1970FB6F894DEBFB3
:100A30000FBECDBF082FF92E162F0E94FE1D80EA93
:100A400089839E012E5F3F4FC901602F7F2D412F6B
:100A500050E00E943E5882E090E060E00E94DA1D83
:100A60001B981F5FCE010196612F0E94E61D1B9A05
:100A70000E94F41D8981A1960FB6F894DEBF0FBEC7
:100A8000CDBFCF91DF911F910F91FF900895DF931C
:100A9000CF930F92CDB7DEB70E94FE1D83EE898300
:100AA00082E090E060E00E94DA1D1B98CE01019682
:100AB00061E00E94E61D1B9A0E94F41D89810F903F
:100AC000CF91DF910895DF93CF930F92CDB7DEB72B
:100AD0000E94FE1D82EE898382E090E060E00E9429
:100AE000DA1D1B98CE01019661E00E94E61D1B9A5B
:100AF0000E94F41D89810F90CF91DF910895DF93BB
:100B0000CF930F92CDB7DEB70E94FE1D81EE898391
:100B100082E090E060E00E94DA1D1B98CE01019611
:100B200061E00E94E61D1B9A0E94F41D89810F90CE
:100B3000CF91DF910895FF920F931F93DF93CF938F
:100B4000CDB7DEB7A1970FB6F894DEBF0FBECDBF0D
:100B5000082FF92E162F0E94FE1D81E6898382E060
:100B600090E060E00E94DA1D1B98612F6F5FCE015C
:100B700001960E94E61D1B9A0E94F41D9E012E5FA5
:100B80003F4F802F9F2DB901412F50E00E943E58CA
:100B90008981A1960FB6F894DEBF0FBECDBFCF916D
:100BA000DF911F910F91FF900895DF93CF9300D0B5
:100BB000CDB7DEB70E94FE1D80E6898382E090E01B
:100BC00060E00E94DA1D1B98CE01019662E00E944F
:100BD000E61D1B9A0E94F41D8A810F900F90CF9101
:100BE000DF910895EF92FF920F931F93DF93CF93BE
:100BF00000D000D000D0CDB7DEB7182FF62EE72EEC
:100C0000042F0E94FE1D106219839E012E5F3F4F2C
:100C1000C9016F2D7E2D402F50E00E943E5882E08A
:100C200090E060E00E94DA1D1B980F5FCE010196F4
:100C3000602F0E94E61D1B9A0E94F41D8981269652
:100C40000FB6F894DEBF0FBECDBFCF91DF911F91DD
:100C50000F91FF90EF9008950F931F93DF93CF9321
:100C600000D0CDB7DEB7182F062F0E94FE1D1062F0
:100C700019830A8382E090E060E00E94DA1D1B98ED
:100C8000CE01019662E00E94E61D1B9A0E94F41DAF
:100C900089810F900F90CF91DF911F910F9108954F
:100CA000EF92FF920F931F93DF93CF9300D000D06A
:100CB00000D0CDB7DEB7182FF62EE72E042F0E94F6
:100CC000FE1D198382E090E060E00E94DA1D1B980F
:100CD000602F6F5FCE0101960E94E61D1B9A0E9455
:100CE000F41D9E012E5F3F4F8F2D9E2DB901402F89
:100CF00050E00E943E58898126960FB6F894DEBFD8
:100D00000FBECDBFCF91DF911F910F91FF90EF905C
:100D100008951F93DF93CF9300D0CDB7DEB7182F80
:100D20000E94FE1D198382E090E060E00E94DA1DBF
:100D30001B98CE01019662E00E94E61D1B9A0E945C
:100D4000F41D8A810F900F90CF91DF911F9108952C
:100D5000DF93CF930F92CDB7DEB70E94FE1D8FEFCA
:100D6000898382E090E060E00E94DA1D1B98CE014A
:100D7000019661E00E94E61D1B9A0E94F41D898184
:100D80000F90CF91DF910895EF92FF921F93DF9321
:100D9000CF9300D0CDB7DEB7CE01019661E00E94BF
:100DA000E61D809185028F3F69F410E082E0E82E15
:100DB000F12CEC0EFD1EC70161E00E94E61D1F5FD5
:100DC0001830C9F7809185028F5F809385028981F1
:100DD0000F900F90CF91DF911F91FF90EF900895AA
:100DE000EF92FF920F931F93CF93DF937C018B01C0
:100DF000C0E0D0E007C00E94C406F801EC0FFD1F60
:100E000080832196CE15DF05B0F380E0DF91CF918E
:100E10001F910F91FF90EF900895FF920F931F93F2
:100E2000DF93CF930F92CDB7DEB787ED89838091A3
:100E300062008B7F809362008E010F5F1F4FC8019D
:100E400061E00E94E61DF02E012F8F2D902F61E0B2
:100E50000E94E61D898187FFF8CF8091620084603F
:100E60008093620061E070E080E090E00E94361FB5
:100E70000F90CF91DF911F910F91FF900895EF9206
:100E8000FF920F931F93DF93CF9300D000D0CDB785
:100E9000DEB77B018C010E94FE1D8F3F69F181E06E
:100EA00090E060E00E94DA1D88EE8983D801C701D6
:100EB0002FE0B695A795979587952A95D1F78A83C0
:100EC000BB27A12F902F8F2D880F8B83E092850257
:100ED000EC820E940D07809162008B7F80936200FC
:100EE0008E010F5F1F4FC80164E00E94E61DC8011C
:100EF00064E00E94E61D80E00F900F900F900F902D
:100F0000CF91DF911F910F91FF90EF900895AF92D5
:100F1000BF92CF92DF92EF92FF920F931F93DF93D6
:100F2000CF9300D000D0CDB7DEB7162F5A0179018C
:100F30000E94FE1D8F3F19F42FEF3FEF44C081E068
:100F400090E060E00E94DA1D84E889831A821B82A7
:100F50001C83809162008B7F80936200CE0101969A
:100F600064E00E94E61D612F70E0C701860F971FA5
:100F70008150914028F0E12C31E0F32EE61AF70A77
:100F800000E010E06E010894C11CD11C0BC0F501FB
:100F9000E00FF11F80818983C60161E00E94E61D98
:100FA0000F5F1F4F0E151F0590F380916200846044
:100FB0008093620061E070E080E090E00E94361F64
:100FC0000E94F41D9701C9010F900F900F900F9090
:100FD000CF91DF911F910F91FF90EF90DF90CF9015
:100FE000BF90AF900895EF92FF920F931F93DF93FE
:100FF000CF9300D000D0CDB7DEB77B018C010E942B
:10100000FE1D8F3F91F181E090E060E00E94DA1DCB
:1010100083E88983D801C7015FE0B695A7959795C6
:1010200087955A95D1F78A83BB27A12F902F8F2DB3
:10103000880F8B831C820E940D07809162008B7F3A
:1010400080936200CE01019664E00E94E61D8091CB
:10105000620084608093620061E070E080E090E074
:101060000E94361F0E94F41D80E00F900F900F9099
:101070000F90CF91DF911F910F91FF90EF90089506
:101080000F931F93DF93CF9300D0CDB7DEB78C01C2
:1010900087ED89831A820E94FE1D8F3F01F181E056
:1010A00090E060E00E94DA1D809162008B7F809367
:1010B0006200CE01019662E00E94E61D809162000E
:1010C00084608093620061E070E080E090E00E94C4
:1010D000361F0E94F41D8A81F801808380E00F9002
:1010E0000F90CF91DF911F910F910895E2E6F0E00C
:1010F00080818460808361E070E080E090E00E9405
:10110000361F0E94F41D0895EF92FF920F931F93D4
:10111000DF93CF9300D000D0CDB7DEB77B018C0139
:101120000E94FE1D8F3F91F181E090E060E00E94FF
:10113000DA1D83E58983D801C7017FE0B695A795BD
:10114000979587957A95D1F78A83BB27A12F902F02
:101150008F2D880F8B831C820E940D078091620067
:101160008B7F80936200CE01019664E00E94E61DB1
:101170008091620084608093620061E070E080E0B2
:1011800090E00E94361F0E94F41D80E00F900F90A7
:101190000F900F90CF91DF911F910F91FF90EF90E3
:1011A0000895809100020895CF92DF92EF92FF920E
:1011B0000F931F938C017B0186E8C82E82E0D82E06
:1011C000C6010E940E1589E091E0B801A7010E94B6
:1011D0007E58182F092FC6010E94B114812F902F1D
:1011E0001F910F91FF90EF90DF90CF900895DF93C4
:1011F000CF93CDB7DEB7FE01359681919191BF01B6
:101200000E94D408CF91DF910895CF92DF92EF92A0
:10121000FF920F931F938C017B0196E8C92E92E0F9
:10122000D92EC6010E940E1589E091E0B801A701F0
:101230000E948F52182F092FC6010E94B114812FCE
:10124000902F1F910F91FF90EF90DF90CF90089516
:10125000DF93CF93CDB7DEB7FE01359681919191A3
:10126000BF010E940509CF91DF9108950F931F934D
:10127000082F162F86E892E00E940E15912F929566
:101280009F70002329F0979A82B38370806C04C00A
:10129000979882B383708064990F990F982B92BBB3
:1012A00060E670E080E090E00E94361F60E670E04B
:1012B00080E090E00E94361F60E670E080E090E001
:1012C0000E94361F60E670E080E090E00E94361FCA
:1012D00060E670E080E090E00E94361F60E670E01B
:1012E00080E090E00E94361F60E670E080E090E0D1
:1012F0000E94361F60E670E080E090E00E94361F9A
:1013000060E370E080E090E00E94361F969860E60F
:1013100070E080E090E00E94361F60E670E080E0C0
:1013200090E00E94361F60E670E080E090E00E944E
:10133000361F60E670E080E090E00E94361F60E6B5
:1013400070E080E090E00E94361F60E670E080E090
:1013500090E00E94361F60E670E080E090E00E941E
:10136000361F60E670E080E090E00E94361F60E388
:1013700070E080E090E00E94361F612F70E0002353
:1013800021F082B38370806C03C082B38370806469
:101390006F707070660F771F660F771F862B82BB8A
:1013A00060E670E080E090E00E94361F60E670E04A
:1013B00080E090E00E94361F60E670E080E090E000
:1013C0000E94361F60E670E080E090E00E94361FC9
:1013D00060E670E080E090E00E94361F60E670E01A
:1013E00080E090E00E94361F60E670E080E090E0D0
:1013F0000E94361F60E670E080E090E00E94361F99
:1014000060E370E080E090E00E94361F969860E60E
:1014100070E080E090E00E94361F60E670E080E0BF
:1014200090E00E94361F60E670E080E090E00E944D
:10143000361F60E670E080E090E00E94361F60E6B4
:1014400070E080E090E00E94361F60E670E080E08F
:1014500090E00E94361F60E670E080E090E00E941D
:10146000361F60E670E080E090E00E94361F60E387
:1014700070E080E090E00E94361F86E892E00E94D3
:10148000B1141F910F91089586E892E00E940E1505
:1014900080E061E00E94360980E062E00E94360947
:1014A000EBE8F2E080E2819392E0EB3AF907D9F7BA
:1014B000109200021092010286E892E00E94B1149C
:1014C00008951F93182F86E892E00E940E1510933E
:1014D000000280910102181751F01093010210319F
:1014E00008F0105D106880E0612F0E94360986E8E0
:1014F00092E00E94B1141F9108951F93182F86E85F
:1015000092E00E940E1580910202882321F00E9431
:10151000440A1092020280910002803211F410926B
:1015200000021A3021F481E08093020224C09091DD
:101530000002903119F48FEF80930102E92FF0E05F
:10154000E557FD4F8081811789F01083809101025A
:10155000891719F0892F0E94610A81E0612F0E948A
:101560003609809101028F5F809301028091000211
:101570008F5F8093000286E892E00E94B114212FD1
:10158000332727FD3095C9011F9108950F931F93AD
:10159000CF93DF938C0186E892E00E940E15E8015C
:1015A0001AC06A3039F480E060E80E94360910926F
:1015B000000203C081E00E9436099E01201B2F30EB
:1015C00021F480E060EC0E943609809100028F5F78
:1015D0008093000221966881662319F786E892E0DD
:1015E0000E94B114DF91CF911F910F910895EF9256
:1015F000FF920F931F93E82E162F072F86E892E095
:101600000E940E15EE0CEE0CEE0C812F902FFC01BB
:101610008F01FF246F2D6E0D606480E00E943609FB
:10162000F801649181E00E943609F3940F5F1F4F27
:10163000F8E0FF1679F786E892E00E94B1141F9156
:101640000F91FF90EF90089564E670E080E090E0E5
:101650000E94531F80E063E30E94360980E062E34A
:101660000E94360981E067ED70E00E94F70A82E08F
:101670006FED70E00E94F70A83E067EE70E00E9471
:10168000F70A84E06FEE70E00E94F70A85E067EFEA
:1016900070E00E94F70A86E06FEF70E00E94F70AA0
:1016A00080E061E00E94360980E062E00E94360935
:1016B000EBE8F2E080E2819392E0EB3AF907D9F7A8
:1016C00080E066E00E94360980E06CE00E94360906
:1016D00086E892E060E071E00E94011508950895A7
:1016E000CF92DF92EF92FF920F931F93082F7B010F
:1016F00080E090E8E82AF92A8BEAC82E82E0D82E0A
:10170000C6010E940E15000F005E10E000501F4E33
:10171000F801E192F082C6010E94B1141F910F916D
:10172000FF90EF90DF90CF9008951F93182F80E0E7
:1017300090E00E949F5D21E632EC44E85FE30E9466
:10174000115F0E946F5D9B01AC012F5B3F4F812FAA
:10175000B9010E94700B1F910895EF92FF920F93B1
:101760001F93082F9BEAE92E92E0F92EC7010E94F1
:101770000E15000F005E10E000501F4EF801119290
:101780001082C7010E94B1141F910F91FF90EF903A
:1017900008958BEA92E067E171E00E9401150895D7
:1017A0001F93DF93CF93CDB7DEB728970FB6F8948A
:1017B000DEBF0FBECDBF182F80EB92E00E940E154A
:1017C000DE011396EDE2F1E086E001900D9281508A
:1017D000E1F7FE01E10FF11D638170E0685F7F4F6B
:1017E00080E090E0AE014F5F5F4F0E94A40480EB69
:1017F00092E00E94B11489819A8128960FB6F894DC
:10180000DEBF0FBECDBFCF91DF911F9108950E9423
:10181000D00BA0E0B0E0BC01CD010E949F5D28E4A8
:1018200031EE40E851E40E94115F0E946F5DCB01F0
:101830000895FF920F931F93F82E00EB12E0C8015A
:101840000E940E15FF0CEF2DF0E0E050FF4E83E0FC
:101850008083C8010E94B1141F910F91FF900895D9
:101860001F93CF93DF93182FEB0180EB92E00E9440
:101870000E15110F1C161D0634F4E12FF0E0E05098
:10188000FF4E81E007C0E12FF0E0209729F0E05003
:10189000FF4E82E0808303C0E050FF4E1082E12FB4
:1018A000F0E0EF5FFE4EBE01D7FF03C0709561957B
:1018B0007F4F608380EB92E00E94B114DF91CF9163
:1018C0001F91089580EB92E062E271E00E940115A1
:1018D0000895DF93CF9300D0CDB7DEB7982F88500F
:1018E000883090F403C080E291E015C067E170E0B9
:1018F000691B710981E090E0AE014F5F5F4F0E946C
:10190000A4048823D9F0EFCF892F8051883028F0A4
:1019100012C083E191E00E9410176FE170E0691B33
:10192000710982E090E0AE014F5F5F4F0E94A40416
:10193000882321F0EECF87E091E0EDCF89819A8175
:101940000F900F90CF91DF9108950F931F93182F51
:10195000062F883020F08DE291E00E94101785EB71
:1019600092E00E940E15E12FF0E0EF5CFE4E008346
:1019700081E090E002C0880F991F1A95E2F720914C
:101980000302282B209303022093301185EB92E071
:101990000E94B1141F910F91089561116FEF0E9481
:1019A000A50C0895FF920F931F9305EB12E0C80159
:1019B0000E940E15F0901E11C8010E94B1148F2DC7
:1019C00080951F910F91FF9008951F93182F8830D5
:1019D00028F585EB92E00E940E1581E090E0012E43
:1019E00002C0880F991F0A94E2F7809520910302A4
:1019F0008223809303028093301180911E1190E026
:101A00008095909502C0959587951A95E2F7182FC5
:101A1000117085EB92E00E94B1140EC0883140F441
:101A20000E94690C10E08150924030F011E004C037
:101A30008BE391E00E941017812F1F91089585EB91
:101A400092E063E371E00E9401150895CF92DF9266
:101A5000EF92FF920F931F93082F8AEBC82E82E01C
:101A6000D82EC6010E940E15000F045210E000503F
:101A70001F4EF801E1901081C6010E94B114912F10
:101A800080E0FF24E82AF92AC7011F910F91FF90F7
:101A9000EF90DF90CF9008951F93182F0E94260D8E
:101AA000E12FF0E0EE0FFF1FEC52FE4F208131815D
:101AB000821B930B1F9108951F93182F0E94260DD0
:101AC000E12FF0E0EE0FFF1FEC52FE4F9183808379
:101AD0001F9108958AEB92E060E471E00E94011585
:101AE000089581B18295869587708095817008955B
:101AF00081B182958F70809581700895AF92BF9269
:101B0000CF92DF92EF92FF920F931F939B017C0184
:101B100000E010E040E050E0CA01B901A8019701DF
:101B20000E94F35F28EE33E040E050E00E9439600D
:101B3000C901DA015C016D0160E271EA87E090E0C1
:101B4000A80197010E943960790100E010E00FC000
:101B5000C49AC801B7010E94361FC498C801B701D2
:101B60000E94361F0894A108B108C108D108A11429
:101B7000B104C104D10461F71F910F91FF90EF9060
:101B8000DF90CF90BF90AF9008950C99FECF64E6A0
:101B900070E080E090E00E94361F0C9BFECF08951D
:101BA0000D99FECF64E670E080E090E00E94361F61
:101BB0000D9BFECF08951F930D9B02C00C99FCCF87
:101BC00011B164E670E080E090E00E94361F0D9B4A
:101BD000FECF0C9BFCCF212F30E085E0369527957A
:101BE0008A95E1F72095309521703070C9011F91D9
:101BF0000895DF93CF9300D0CDB7DEB780E090E0BB
:101C00006FE070E0AE014F5F5F4F0E94A4046981F6
:101C10007A8180E090E00E949F5D2CE135E441E212
:101C200051E40E94115F0E946F5DCB010F900F90F5
:101C3000CF91DF910895DF93CF9300D0CDB7DEB77A
:101C400080E090E061E070E0AE014F5F5F4F0E9486
:101C5000AA1D89819A810F900F90CF91DF910895ED
:101C6000CF92DF92EF92FF920F931F93DF93CF9368
:101C700000D0CDB7DEB76C017B0180E090E061E081
:101C800070E0AE014F5F5F4F0E94AA1DEC18FD0887
:101C90000894E11CF11C00E010E029813A8140E049
:101CA00050E0C801B7010E94F35F2AE0969587953E
:101CB000779567952A95D1F7C60ED71EC6010F9066
:101CC0000F90CF91DF911F910F91FF90EF90DF90D8
:101CD000CF900895CF92DF92EF92FF920F931F93D0
:101CE0007B018C018FEBC82E82E0D82EC6010E94AA
:101CF0000E15C801B70120910C0230910D024091E0
:101D00000E0250910F020E94115F0E94305D2093DD
:101D10001002309311024093120250931302609309
:101D20001402709315028093160290931702C60155
:101D30000E94B1141F910F91FF90EF90DF90CF9010
:101D400008958F929F92AF92BF92CF92DF92EF92BF
:101D5000FF920F931F939FEB892E92E0992EC4015F
:101D60000E940E15A0901002B0901102C0901202B5
:101D7000D0901302E0901402F09015020091160228
:101D8000109117029501A601B701C8010E949B5D41
:101D900020910C0230910D0240910E0250910F02E1
:101DA0000E94C85C7B018C01C4010E94B114B70180
:101DB000C8011F910F91FF90EF90DF90CF90BF90DF
:101DC000AF909F908F9008952F923F924F925F9285
:101DD0006F92AF92BF92CF92DF92EF92FF920F93EA
:101DE0001F93DF93CF93CDB7DEB72B970FB6F89441
:101DF000DEBF0FBECDBF0E943717AC01CB01DA01A9
:101E00005C016D0180915C010E94690C7C0100E025
:101E100010E080911D0290911E02A0E0B0E0E81A4F
:101E2000F90A0A0B1B0B0E943717688779878A8784
:101E30009B8788859985AA85BB858A199B09AC09EA
:101E4000BD095C016D01C801B701A60195010E94A1
:101E5000F35F7B018C0120911F023091200240E052
:101E600050E0C601B5010E94F35F5B016C018FEB8E
:101E700092E00E940E158091180290911902A09193
:101E80001A02B0911B028A0D9B1DAC1DBD1D8093D3
:101E9000180290931902A0931A02B0931B0280912A
:101EA000180290911902A0911A02B0911B02898325
:101EB0009A83AB83BC83A090CE02B090CF02CC2497
:101EC000DD24609118027091190280911A0290919C
:101ED0001B02A60195010E945B609B01AC0120934F
:101EE00018023093190240931A0250931B0250902B
:101EF0001002309011022090120260901302909113
:101F000014029D83A0911502AE83B0911602BF8387
:101F10004090170269817A818B819C81A60195018D
:101F20000E945B60E21AF30A040B150BD801C7018B
:101F3000BB0F880B982FDC013F2DA801982FB82EDE
:101F4000A82EC82ED52CDE1821E05D1408F020E064
:101F5000E32CE31A31E03E1408F030E0FE2DF21BD2
:101F600021E0EF1608F020E0322BE22CE41A41E0E9
:101F70002E1408F040E0EE2DE31B21E0EE1608F0F1
:101F800020E0422BE62CE51A31E06E1408F030E038
:101F90007E2D741B21E0E71608F020E0322B8D81A6
:101FA000891B41E09D81981708F040E0682F631B72
:101FB00021E0861708F020E0422B8E818B1931E05A
:101FC000AE81A81708F030E0582F541B21E0851788
:101FD00008F020E0322B8F818A1921E0BF81B817E9
:101FE00008F020E0482F431B31E0841708F030E070
:101FF000232B4C18421AD0921002F0931102E09356
:1020000012027093130260931402509315024093CE
:102010001602409217028FEB92E00E94B1140E94C8
:10202000461AA884B984CA84DB84ECCE2F923F92EE
:102030004F925F926F927F928F929F92AF92BF92D8
:10204000CF92DF92EF92FF920F931F931801290115
:1020500080935C0140930C0250930D0260930E023A
:1020600070930F020E946B173B014C01AA24BB2402
:102070006501EE24FF2487010FC080915C010E945E
:10208000690CA0E0B0E0E80EF91E0A1F1B1F0894BF
:10209000A11CB11CC11CD11C0E946B1766197709C9
:1020A00088099909621573058405950530F3C801FF
:1020B000B701A60195010E94396030931E0220935A
:1020C0001D02C801B701A60195010E9439607093F5
:1020D000200260931F02B092CF02A092CE02109213
:1020E000100210921102109212021092130210921A
:1020F00014021092150210921602109217028FEB22
:1021000092E06DE471E00E94011584EE9EE060E0D3
:1021100071E040E027E531E00E941D191F910F9109
:10212000FF90EF90DF90CF90BF90AF909F908F90F7
:102130007F906F905F904F903F902F900895809187
:1021400085018E3119F480E090E00895E0918501D9
:10215000F0E0EE5AFC4F808190E0882309F491E092
:1021600081E09827892F089502C00E94461A809125
:1021700085018E31D1F3E0918501F0E0EE5AFC4FFC
:102180008081882391F390918501E92FF0E0EE5A48
:10219000FC4F80819F5F9093850108950E94B41049
:1021A000282F332727FD3095C9010895EF92FF921C
:1021B0001F93CF93DF937C01EB0187E00E94890698
:1021C00090E08E70907095958795182F873061F00C
:1021D0000E94D505682F8883813218F00E9463051C
:1021E000ECCFC7010E949B05812FDF91CF911F91FA
:1021F000FF90EF90089585E793E00E940E15A0ED03
:10220000B2E0EEEEF2E08EE101900D928150E1F746
:1022100080917A0390917B03A0917C03B0917D0320
:102220008093710390937203A0937303B09374032C
:1022300085E793E00E94B11408950F931F93DF93F5
:10224000CF93CDB7DEB727970FB6F894DEBF0FBE9A
:10225000CDBF8C01FC018081813009F47BC08130CD
:1022600038F0823009F489C0833009F0A4C098C0E6
:10227000809186018F3F09F49EC090918601F801FC
:1022800081858917D1F4DE011196329687E001909D
:102290000D928150E1F7D8011296F801399687E046
:1022A00001900D928150E1F7D8011996FE01319607
:1022B00087E001900D928150E1F7809187018F3F77
:1022C00051F490918601F8018281891721F481816E
:1022D000837080938701F8018181837090918701D9
:1022E000981709F068C085E793E00E940E15F80181
:1022F000928180918601981799F09A3A41F0D8011D
:102300001996329687E001900D928150E1F7D8013D
:102310001296EEEEF2E087E001900D928150E1F727
:10232000AEEEB2E0F80132968EE101900D9281504E
:10233000E1F70E9437179B01AC0120937A03309399
:102340007B0340937C0350937D0385E793E00E94D9
:10235000B11431C0809186018F3F69F1F80120E00E
:10236000909186018281891719F40E94FA1323C083
:102370002F5F31962E31A1F71EC0809186018F3FCD
:10238000D1F0F80120E0909186018281891719F43B
:102390000E94531410C02F5F31962E31A1F70BC04D
:1023A00010928501A2E5B3E0F80132968EE101902A
:1023B0000D928150E1F727960FB6F894DEBF0FBE5D
:1023C000CDBFCF91DF911F910F910895EF92FF92B2
:1023D0000F931F93DF93CF93CDB7DEB7A1970FB6BF
:1023E000F894DEBF0FBECDBF8E010E5F1F4F7E0182
:1023F0000894E11CF11C0E94A80686FF10C087E02B
:1024000060E40E942C0604C0C80169810E941D116D
:10241000C801B7010E94D610482F8730A9F70E9443
:10242000461AE9CF0F931F9302E610E0F80180816E
:10243000877F808366E970E080E090E00E94361F2D
:1024400080E06DE30E942C0681E060E00E942C0693
:1024500086E067E00E942C0681E160E20E942C0683
:1024600080E06BE30E942C06F80180818860808305
:1024700066E970E080E090E00E94361F1F910F91A6
:1024800008958091230290912402892BD9F48DE242
:1024900093E06DE571E00E94011585E793E065E644
:1024A00071E00E9401151092700310922C030E949B
:1024B000121286EE91E160E071E040E024E731E045
:1024C0000E941D190895DF93CF9300D000D00F9282
:1024D000CDB7DEB780916200877F8093620066E9A6
:1024E00070E080E090E00E94361F80E06CE70E9480
:1024F0002C0681E060E00E942C0684E060E00E94EF
:102500002C0683E063E00E942C0686E067E00E94D0
:102510002C0685E062E00E942C06DE011196E8E8B8
:10252000F1E085E001900D928150E1F780E1BE017C
:102530006F5F7F4F45E00E94F20580E06AE70E94EE
:102540002C060E94A8060F900F900F900F900F90EE
:10255000CF91DF910895DF92EF92FF920F931F9337
:10256000182F7B01042F0E9463128AE00E948906C3
:10257000D82E8AE0612F0E942C0680E1612F0E94F4
:102580002C0687E06EE70E942C06C701602F0E9490
:102590000D058091620088608093620064E170E0C4
:1025A00080E090E00E94361F80916200877F8093D8
:1025B000620002C00E94461A87E00E948906682FC6
:1025C000082F10E0C80180739070892B99F3607315
:1025D00087E00E942C068AE06D2D0E942C060E9446
:1025E0007F050E94121235E0169507953A95E1F79E
:1025F000802F81701F910F91FF90EF90DF900895D1
:102600000F931F93082F1FB7F89480912102E82F92
:10261000F0E0EE5CFC4F02838F5F809321020A3072
:1026200011F08E3159F483E08093320387EE62E338
:1026300073E040E20E94AB12109221028FB7107833
:10264000182B1FBF202F332727FD3095C9011F915D
:102650000F9108951F93182F8A3019F48DE00E946E
:102660000013812F0E9400131F910895CF92DF92D3
:10267000EF92FF920F931F938C017B014DE2C42ECA
:1026800043E0D42EC6010E940E1587E791E0B80101
:10269000A7010E948F58182F092FC6010E94B1145C
:1026A000812F902F1F910F91FF90EF90DF90CF908F
:1026B0000895DF93CF93CDB7DEB7FE0135968191B4
:1026C0009191BF010E943613CF91DF910895CF926F
:1026D000DF92EF92FF920F931F938C017B015DE2DB
:1026E000C52E53E0D52EC6010E940E1587E791E056
:1026F000B801A7010E94825A182F092FC6010E9413
:10270000B114812F902F1F910F91FF90EF90DF90C8
:10271000CF900895DF93CF93CDB7DEB7FE01359606
:1027200081919191BF010E946713CF91DF9108952C
:10273000CF92DF92EF92FF920F931F938C017B0158
:102740006DE2C62E63E0D62EC6010E940E1587E705
:1027500091E0B801A7010E947E58182F092FC601E9
:102760000E94B114812F902F1F910F91FF90EF9035
:10277000DF90CF900895DF93CF93CDB7DEB7FE0102
:10278000359681919191BF010E949813CF91DF916D
:102790000895CF92DF92EF92FF920F931F938C01D7
:1027A0007B017DE2C72E73E0D72EC6010E940E1575
:1027B00087E791E0B801A7010E948F52182F092FD7
:1027C000C6010E94B114812F902F1F910F91FF908D
:1027D000EF90DF90CF900895DF93CF93CDB7DEB722
:1027E000FE01359681919191BF010E94C913CF914D
:1027F000DF91089581E08093220208950E94FD15E3
:1028000000D088E491E0EDB7FEB7928381830E9407
:10281000F71E0F900F900E948A198AE194E160E000
:1028200071E040E02DE831E00E941D190E94411244
:102830000E94BC1A00D08FEA91E0EDB7FEB79283F8
:1028400081830E94F71E0F900F900E94AE3600D039
:102850008BE991E0EDB7FEB7928381830E94F71E6A
:102860008AE691E0EDB7FEB7928381830E94F71E5E
:102870000F900F9002C00E94461A80912202882376
:1028800021F40E94710D8823B1F300D086E591E018
:10289000EDB7FEB7928381830E94F71E0F900F90D1
:1028A0000E94CB4D089500D084EC91E0EDB7FEB7C7
:1028B000928381830E94F71E0F900F900E94421B0B
:1028C000FC014FB74078F8945081552349F023819B
:1028D000348180912302909124022817390769F4EA
:1028E0005F5F5083809123029091240294838383BD
:1028F0008FB7482B4FBF81E008958FB7482B4FBF4C
:1029000080E00895FC01009721F48FEC91E00E9493
:1029100010178FB7F8941082148213829FB78078B3
:10292000892B8FBF0895FC01009721F485E092E088
:102930000E941017209123023091240283819481F8
:102940002817390719F020E030E009C090E08081B5
:10295000882309F491E081E09827292F30E0C9010C
:1029600008951F93CF93DF93EC01009719F483EF41
:1029700091E008C01FB7F8940E949314892B21F4AA
:102980008FED91E00E941017888181508883882301
:1029900011F41C821B828FB71078182B1FBFDF9198
:1029A000CF911F910895FC01009719F48FE292E0F6
:1029B00005C050815F3F21F487E192E00E9410172B
:1029C0004FB74078F894552349F0238134818091A2
:1029D0002302909124022817390769F45F5F50831E
:1029E0008091230290912402948383838FB7482B94
:1029F0004FBF81E004C08FB7482B4FBF80E090E00D
:102A00000895FC01009721F480EB92E00E941017DA
:102A1000108272836183148213820895CF93DF93AF
:102A2000EC01009719F48EE992E005C088818F3F90
:102A300051F486E892E00E9410170E94461A03C0E3
:102A400081E492E0F8CF2FB72078F89438813323CF
:102A500049F040912302509124028B819C8184177C
:102A6000950771F43F5F388380912302909124028F
:102A70009C838B838FB7282B2FBFDF91CF91089535
:102A80008FB7282B2FBF452BC1F6DACF20E030E8D7
:102A90003093FD012093FC018FEF9FEF9093FF0196
:102AA0008093FE0100D000D082EF93E0EDB7FEB737
:102AB00092838183348323830E94F71E8AED93E0FF
:102AC000EDB7FEB7928381838091FE019091FF0163
:102AD000948383830E94F71E85EC93E0EDB7FEB7E5
:102AE000928381838091FE019091FF012091FC01EE
:102AF0003091FD01821B930B948383830E94F71E08
:102B00000F900F900F900F902091FC013091FD01DC
:102B10008091FE019091FF012817390720F089EB81
:102B200093E00E9410170895CF93DF9300D000D058
:102B30002CE034E0EDB7FEB73283218394838383A6
:102B40000E94F71EC0E0D0E00F900F900F900F9002
:102B50000FC01E9A64E670E080E090E00E94101BB7
:102B60001E9866E970E080E090E00E94101B2196BC
:102B7000C230D10574F360E273E080E090E00E941F
:102B8000101BC0E0D0E0F4CF60E070E080E090E0A7
:102B90000E943F078AE090E064EC72E00E94F00639
:102BA0000E947608E4ECF2E020E030E081913827E2
:102BB000032E0294802D8F708327932F9025990FD9
:102BC000907E8927902D9327907F9695032E000C59
:102BD000991F3695369536953F7139273227282F1C
:102BE00082E0EC3CF80711F740E0808191812817E2
:102BF000390709F441E0842F08950F931F930E9431
:102C00007C1D80E09BE40E94481E0DEB11E01093B8
:102C1000C2050093C10500D000D085EA93E0ADB7AE
:102C2000BEB712969C938E93119780E09BE4149606
:102C30009C938E9313970E94F71E0F900F908CE831
:102C400093E0EDB7FEB7928381830E94F71E0F9049
:102C50000F900E941F0D0E946A0D0E94041E0E9488
:102C6000620C0E94C90B1093C0050093BF0510931E
:102C7000BE050093BD050E94D31D0E94701B0E94DB
:102C800046150E94C415882321F481E893E00E9430
:102C9000941500D080E793E0ADB7BEB712969C9331
:102CA0008E9311970E94F71E2091C4023091C502A5
:102CB00000D000D0EDB7FEB7319686E593E0ADB712
:102CC000BEB712969C938E93119732831382307005
:102CD000358324830E94F71E0F900F9087E493E0C2
:102CE000EDB7FEB7928381838091C6029091C702AF
:102CF000948383830E94F71E2091C4023091C50201
:102D000000D0EDB7FEB7319682E393E0ADB7BEB722
:102D100012969C938E931197328313823070358371
:102D200024830E94F71EEDB7FEB736960FB6F894CF
:102D3000FEBF0FBEEDBF0E94F90D00D000D02DE107
:102D400033E0ADB7BEB712963C932E93119714960D
:102D50009C938E9313970E94F71E0F900F900F90E5
:102D60000F900E94F90D80529C4188F40E94710DD1
:102D7000882341F000D087E093E0EDB7FEB792835F
:102D800081830EC08BEF92E00E9494150DC000D09D
:102D90008FEE92E0ADB7BEB712969C938E931197CB
:102DA0000E94F71E0F900F906091CA027091CB02A3
:102DB00080E091E00E940604882321F482EE92E0F4
:102DC0000E9494152091FE113091FF1100D000D087
:102DD00000D0EDB7FEB7319685ED92E0ADB7BEB746
:102DE00012969C938E9311972283138234831582BB
:102DF0000E94F71E0F900F900F900F908FEB92E0B4
:102E0000EDB7FEB7928381830E94F71E1E980F9044
:102E10000F901F910F9108958BE194E00E9410177D
:102E2000EC01F89483ED94E00E948214209711F451
:102E3000C2E9D1E000D000D080E294E0EDB7FEB767
:102E400092838183D483C3830E94F71E0F900F90D7
:102E50000F900F900E94421B83E085BD83E884BDE4
:102E600086B7806486BF87B7806487BF0895EF9276
:102E7000FF920F931F932FB7F894609125027091E2
:102E80002602809127029091280244B53FB720780E
:102E9000232B2FBF242F30E0235830407901002707
:102EA000F7FC0095102F2DE730E040E050E00E9445
:102EB000F35FE60EF71E081F191F83E0EE0CFF1CE0
:102EC000001F111F8A95D1F7B701C8011F910F91FB
:102ED000FF90EF9008958FB7F894209125023091DC
:102EE000260240912702509128029FB78078892BB3
:102EF0008FBFB901CA01089570E084ED9EEF689F0D
:102F00009001699F300D789F300D11242954304F66
:102F1000C90108950F931F938C0100D087ED94E0B1
:102F2000EDB7FEB7928381830E94F71E83EC94E095
:102F3000EDB7FEB7928381830E94F71E00D000D0C8
:102F400085EB94E0EDB7FEB792838183F801808929
:102F50009189A0E0B0E0EDB7FEB783839483A583A9
:102F6000B6830E94F71E87EA94E0EDB7FEB792831E
:102F70008183F80182899389A0E0B0E0EDB7FEB7C4
:102F800083839483A583B6830E94F71E89E994E026
:102F9000EDB7FEB792838183F801848990E0A0E0C9
:102FA000B0E0EDB7FEB783839483A583B6830E9418
:102FB000F71E8BE894E0EDB7FEB792838183F801AA
:102FC00085899689A0E0B0E0EDB7FEB7838394834E
:102FD000A583B6830E94F71E8DB79EB706960FB6DF
:102FE000F8949EBF0FBE8DBF1F910F910895AF92B1
:102FF000BF92CF92DF92FF920F931F93CF93DF93F5
:1030000083ED94E00E940E15FFB6F89400D083E79C
:1030100094E0ADB7BEB712969C938E9311970E9421
:10302000F71E0AE913E0C0E0D0E00F900F902CE209
:10303000A22E24E0B22E95E5C92E94E0D92EF801F7
:103040002081222399F400D000D0ADB7BEB71296EC
:10305000DC92CE9211971496DC93CE9313970E9434
:10306000F71E0F900F900F900F902EC0EDB7FEB788
:103070003C970FB6F894FEBF0FBEEDBF3196ADB7CB
:10308000BEB71296BC92AE921197D383C283D80179
:103090001C968D919C911D9795838483268317821E
:1030A00012962D913D914D915C9115972087318716
:1030B000428753870E94F71EEDB7FEB73C960FB6C6
:1030C000F894FEBF0FBEEDBF2196045D1F4FC730C1
:1030D000D10509F0B4CF8FB7F0E8FF22F82AFFBE80
:1030E00083ED94E00E94B114DF91CF911F910F9175
:1030F000FF90DF90CF90BF90AF900895CF93DF9374
:10310000EC014A895B898B8D90E024ED3EEFBC0198
:10311000629FC001639F900D729F900D112489548E
:10312000904F8417950718F48DE995E081C08F8939
:10313000988D841B950B298D3A8D2817390708F037
:1031400079C083ED94E00E94821400D08CE895E071
:10315000ADB7BEB712969C938E9311970E94F71E3F
:1031600000D000D000D0EDB7FEB7319682E795E0F1
:10317000ADB7BEB712969C938E93119788A599A56B
:10318000938382838B8D848315828A899B8997831D
:1031900086830E94F71EEDB7FEB738960FB6F894F7
:1031A000FEBF0FBEEDBFCE010E948A1700D000D037
:1031B00088E695E0ADB7BEB712969C938E931197B3
:1031C0008D899E8914969C938E9313970E94F71E67
:1031D0008AE595E0EDB7FEB7928381838F89988D5C
:1031E000948383830E94F71E4F89588D00D0EDB7DA
:1031F000FEB7319680E495E0ADB7BEB712969C93CA
:103200008E931197CA010196298D3A8D821B930BDB
:1032100093838283558344830E94F71EEDB7FEB7E4
:1032200036960FB6F894FEBF0FBEEDBF81E395E072
:103230000E941017DF91CF910895DF93CF9300D0B4
:103240000F92CDB7DEB7AC016FB76B83F894EAE9A4
:10325000F3E01A8219828081882361F089819A8142
:1032600001969A838983BC960797A9F789EE94E023
:103270000E9410178CE290E0A981BA81A89FF0010A
:10328000A99FF00DB89FF00D1124E258FC4F81E08A
:10329000848F31A720A7168E178E10A211A28CE260
:1032A00091E0928F818F53A742A7CF010E94F257DE
:1032B0008CE290E0E981FA81E89FB001E99F700D0E
:1032C000F89F700D112462587C4F2E2F30E084ED52
:1032D0009EEFAC01249FC001259F900D349F900D5F
:1032E00011248954904FDB0153969C938E935297EF
:1032F00085E99AE156969C938E9355979FB78B815B
:103300008078892B8FBF89810F900F900F90CF917C
:10331000DF9108958F929F92AF92BF92CF92DF92EA
:10332000EF92FF920F931F93DF93CF930F92CDB73E
:10333000DEB72FB72983F89400D000D085ED95E053
:10334000ADB7BEB712969C938E9311970EE713E01C
:1033500014961C930E9313970E94F71E8DEB95E025
:10336000EDB7FEB79283818382EB94E094838383ED
:103370000E94F71E095E1F4F8824992457EBE52E03
:103380005FE0F52E0F900F900F900F9046EAA42E5D
:1033900045E0B42E3CE2C32E31E0D32ED801149682
:1033A0008C92149715961C921597ED92FC92F80149
:1033B00017821086118612862DB73EB728503040EE
:1033C0000FB6F8943EBF0FBE2DBFEDB7FEB73196D6
:1033D000ADB7BEB71296BC92AE921197938282821D
:1033E000F582E482C401809590959C012C9DC001DA
:1033F0002D9D900D3C9D900D11248954904F9783E5
:1034000086830E94F71E0894811C911C045D1F4F47
:1034100084ED9EEFE80EF91EADB7BEB718960FB655
:10342000F894BEBF0FBEADBFB7E08B16910409F094
:10343000B5CF82EB94E00E94F2578FEF90E190932A
:10344000C5048093C4048CEB9AE19093C8048093E4
:10345000C70483E085BD83E884BD86B7806486BFEA
:1034600087B7806487BF9FB789818078892B8FBF9A
:103470000F90CF91DF911F910F91FF90EF90DF9010
:10348000CF90BF90AF909F908F900895DF93CF9390
:103490000F92CDB7DEB78FB78983F8941F920F9242
:1034A0002F933F934F935F936F937F938F939F934C
:1034B000AF93BF93EF93FF938091230290912402E7
:1034C000009721F00E94F257892B31F482EB94E0AF
:1034D00061E070E00E941258FF91EF91BF91AF91AF
:1034E0009F918F917F916F915F914F913F912F911C
:1034F0000F901F909FB789818078892B8FBF0F9085
:10350000CF91DF9108958FB7F894E0912302F09165
:103510002402309719F481E295E005C0148E0E94D0
:10352000461A88EF94E00E9410178FB780688FBF0B
:10353000E0912302F091240202A4F3A5E02D099565
:103540000E94831A90932402809323020E947E1883
:10355000E0912302F0912402868D978DA0A1B1A164
:103560000196A11DB11D868F978FA0A3B1A3CF0196
:1035700061E070E00E941258E0912302F091240271
:10358000309719F406E010E003C0838D082F10E097
:103590001092240210922302C1E0D0E06CE2E62EE9
:1035A000F12CDD24D394CE01800F911F67E070E0F1
:1035B0000E942660BC018E9DF0018F9DF00D9E9DA6
:1035C000F00D1124E258FC4F848D843091F4209149
:1035D000250230912602409127025091280282A1B3
:1035E00093A1A4A1B5A1281739074A075B0708F0E2
:1035F000D48E6E9DF0016F9DF00D7E9DF00D112417
:10360000E258FC4F848D813019F4CF010E94A21A38
:103610002196C830D10539F68FB780688FBFFFCFAC
:103620001F939B01AC010FB607FC03C00E94531F00
:103630001EC01FB7F894E0912302F091240284E0A9
:10364000848F8091250290912602A0912702B0914B
:103650002802820F931FA41FB51F82A393A3A4A3C4
:10366000B5A30E94461A8FB71078182B1FBF1F9161
:1036700008950E94F71768EB7BE080E090E00E94DD
:10368000101BF7CFF89480EB92E00E9482148BEA33
:1036900092E00E94821410E0812F0E94190C812F69
:1036A0000E94AD0B1F5F1630B9F710E00FC01E9AD5
:1036B00064E670E080E090E00E94101B1E9866E9CE
:1036C00070E080E090E00E94101B1F5F133078F3E1
:1036D00060E273E080E090E00E94101B10E0E7CF12
:1036E00008951F920F920FB60F920BB60F921124EE
:1036F0002F933F934F935F936F937F938F939F93FA
:10370000AF93BF93EF93FF938FEE95E00E94101756
:103710001F920F920FB60F920BB60F9211242F9398
:103720003F934F935F936F937F938F939F93AF9349
:10373000BF93EF93FF9383E884BD8091250290911E
:103740002602A0912702B09128020196A11DB11D69
:103750008093250290932602A0932702B09328021B
:103760000E94461AFF91EF91BF91AF919F918F9167
:103770007F916F915F914F913F912F910F900BBE71
:103780000F900FBE0F901F901895CF92DF92EF927F
:10379000FF920F931F93CF93DF93182F092FF62ECD
:1037A00000D08AE296E0ADB7BEB712969C938E9396
:1037B00011970E94F71E84E196E0EDB7FEB7928361
:1037C00081830E94F71E212F302FC901EC0100E0F8
:1037D00010E00F900F90EF2CFF2481E0C82E86E0C0
:1037E000D82E24C08DB79EB708970FB6F8949EBF09
:1037F0000FBE8DBFEDB7FEB73196ADB7BEB712960F
:10380000DC92CE92119713830283D583C48389916E
:10381000868317820E94F71E0F5F1F4FEDB7FEB71A
:1038200038960FB6F894FEBF0FBEEDBF0E151F05FC
:10383000CCF2DF91CF911F910F91FF90EF90DF902D
:10384000CF9008959C01009781F000D000D083E9CB
:1038500091E0EDB7FEB792838183348323830E9486
:10386000281F0F900F900F900F900E94D00D089579
:103870000F931F93CF93DF93EC018C01085F1F4FD1
:10388000C8010E940E152C813D816881798126171F
:10389000370719F4C0E0D0E00BC08E819F81860FFE
:1038A000971F0197821B930B0E941260EC012196D7
:1038B000C8010E94B114CE01DF91CF911F910F91E9
:1038C00008954F925F926F927F928F929F92AF92E4
:1038D000BF92CF92DF92EF92FF920F931F93CF93FD
:1038E000DF93EC017B013A0188E0482E512C4C0E0D
:1038F0005D1EC2010E940E15CE010E94381C4C01B3
:103900005C016816790608F45301A114B104E1F1D1
:103910006C817D8148815981C501860F971F84176D
:10392000950710F465011CC08A01061B170BE114F2
:10393000F10449F02A813B81260F371FC701B901E5
:10394000A8010E943E586501C01AD10AE114F10491
:1039500011F0E00EF11E1D821C82C114D104A1F0F1
:10396000E114F10459F02A813B818C819D81280F5B
:10397000391FC701B901A6010E943E588C819D8163
:103980008C0D9D1D9D838C838614970421F4888162
:1039900099819D838C83C2010E94B114C501DF917E
:1039A000CF911F910F91FF90EF90DF90CF90BF903C
:1039B000AF909F908F907F906F905F904F90089501
:1039C0008F929F92AF92BF92CF92DF92EF92FF922F
:1039D0000F931F93CF93DF93EC015B018A0198E073
:1039E000892E912C8C0E9D1EC4010E940E15CE01B5
:1039F0000E94381CBC01800F911F892B59F02C812B
:103A00003D81888199812817390721F48E819F8112
:103A10009D838C83488159817A01E61AF70A0E1535
:103A20001F0508F47801E114F104D1F16E817F8162
:103A3000C701860F971F8417950710F467011CC0F4
:103A40008A01061B170BA114B10449F02A813B819E
:103A5000260F371FC901B501A8010E943E58670112
:103A6000C01AD10AA114B10411F0A00EB11E1F8218
:103A70001E82C114D104A1F0A114B10459F02A810D
:103A80003B818E819F81280F391FC901B501A60195
:103A90000E943E588E819F818C0D9D1D9F838E8339
:103AA000C4010E94B114C701DF91CF911F910F9102
:103AB000FF90EF90DF90CF90BF90AF909F908F904E
:103AC00008950F931F938C01CB01F80171836083DC
:103AD0000E941856F8018283938380819181958397
:103AE000848317821682C801089667E971E00E94F4
:103AF00001151F910F91089585B7806885BFECE689
:103B0000F0E080818F778083EDE6F0E080818D7F2B
:103B1000808385B78F7B85BF87EF87BBC69A8CEF85
:103B200081BB8EE482B983B1806383B98DE08093D9
:103B3000610010926400E2E6F0E08081846080839E
:103B40001A9AC09A8081816080831B9A8081877FC6
:103B5000808308950F931F93CF93DF93182F062F21
:103B6000EA0189EC94E00E940E151795112717952C
:103B7000102B106417B987ED86B9349BFECF349AA9
:103B800084B145B1342F20E090E0282B392B3983C4
:103B9000288389EC94E00E94B11480E0DF91CF91FA
:103BA0001F910F91089589EC94E061EA71E00E9401
:103BB0000115089560659C0136952795622B6DB9B6
:103BC00080FF02C0709A089570980895FC0190E0FB
:103BD00007C080818FB9779BFECF8FB181939F5FA4
:103BE0009617B8F380E008958EEC94E00E94B1142B
:103BF00008958EEC94E00E94D31408958EEC94E026
:103C00000E940E1580E008958EEC94E06AEA71E05F
:103C10000E94011508951E9A5D9BFECF8CB91E98D7
:103C2000282F332727FD3095C9010895282F8A3082
:103C300031F41E9A5D9BFECF8DE08CB91E981E9AC2
:103C40005D9BFECF2CB91E98332727FD3095C90107
:103C50000895FC0106C01E9A5D9BFECF31968CB97B
:103C60001E9880818823B9F708951E9A5F9BFECF26
:103C70001E988CB108951E9A5F9BFECF1E982CB1A2
:103C8000332727FD3095C90108958BB180780895B9
:103C90009C0140E050E064E0220F331F441F551F99
:103CA0006A95D1F760E072E18AE790E00E9439609E
:103CB000C901DA01215029B90197A109B109892F58
:103CC0009A2FAB2FBB27809390001BB886E0809380
:103CD000950088E18AB983ED94E063EB71E00E947E
:103CE00001150895CF92DF92EF92FF920F931F93E9
:103CF0008C017B0173EDC72E74E0D72EC6010E94A4
:103D00000E158DEB91E0B801A7010E948F58182F76
:103D1000092FC6010E94B114812F902F1F910F917E
:103D2000FF90EF90DF90CF900895DF93CF93CDB7C2
:103D3000DEB7FE01359681919191BF010E94721EFE
:103D4000CF91DF910895CF92DF92EF92FF920F9380
:103D50001F938C017B01E3EDCE2EE4E0DE2EC60145
:103D60000E940E158DEB91E0B801A7010E94825AC6
:103D7000182F092FC6010E94B114812F902F1F9177
:103D80000F91FF90EF90DF90CF900895DF93CF9346
:103D9000CDB7DEB7FE01359681919191BF010E94AA
:103DA000A31ECF91DF910895CF92DF92EF92FF9201
:103DB0000F931F938C017B01F3EDCF2EF4E0DF2EE8
:103DC000C6010E940E158DEB91E0B801A7010E947B
:103DD0007E58182F092FC6010E94B114812F902FF1
:103DE0001F910F91FF90EF90DF90CF900895DF9398
:103DF000CF93CDB7DEB7FE01359681919191BF018A
:103E00000E94D41ECF91DF910895CF92DF92EF925E
:103E1000FF920F931F938C017B01A3EDCA2EA4E0A8
:103E2000DA2EC6010E940E158DEB91E0B801A701B4
:103E30000E948F52182F092FC6010E94B114812FA2
:103E4000902F1F910F91FF90EF90DF90CF900895EA
:103E5000DF93CF93CDB7DEB7FE0135968191919177
:103E6000BF010E94051FCF91DF91089530E007C088
:103E7000232F2A95F1F760567040804090406136BC
:103E8000710581059105A0F720E032E14AE750E095
:103E90000E94F35F20EC36EC4DE250E00E94396066
:103EA0002A95F1F7089520E03AEF07C0F90131971C
:103EB000F1F7605270408040904061327105810599
:103EC0009105A0F720E032E14AE750E00E94F35F5D
:103ED00020EA3FE040E050E00E943960C9010197CC
:103EE000F1F70895BC01809171008E7F809371007D
:103EF000809171008D7F8093710080E49FE10E942A
:103F00001260603130F0862F90E04097959587954C
:103F1000682F609370000895A89AA99A909A919A30
:103F2000109271021092700210927302109272023B
:103F300084E690E00E94721FE4E7F0E080818460F4
:103F4000808310922A0210922902808181608083EE
:103F50008081806480837894089590E0611191E07D
:103F60008E7F982B909372000895909371028093A6
:103F70007002089590937302809372020895E4E7AB
:103F8000F0E080818F70806A80830895E4E7F0E03C
:103F900080818F70806D808308958091740087FF89
:103FA000FCCF089580937300E4E7F0E080818F7088
:103FB000806880830895882329F0809174008F7031
:103FC000806C04C0809174008F708068809374004E
:103FD0000895809173000895809171000895282FAD
:103FE0008091290290912A02892BD1F782E090E0FA
:103FF00090932A02809329022E7F20932B02ACE219
:10400000B2E0FA0102C081918D938E2F841B861736
:10401000D0F310924C0260934D02809174008F7027
:10402000806A809374000895282F809129029091CE
:104030002A02892BD1F783E090E090932A028093A3
:104040002902216020932B0210926E0260936F026E
:10405000809174008F70806A80937400809129022F
:1040600090912A02892BD1F7AEE4B2E0FA0102C0A6
:104070008D9181938E2F841B8617D0F30895982FEE
:10408000FA01809174008E7F809374008091740097
:104090008F70806A809374008091740087FFFCCFDA
:1040A0009E7F90937300809174008F7080688093DE
:1040B00074008091740087FFFCCF0FC080818093D3
:1040C0007300809174008F70806880937400809179
:1040D000740087FFFCCF31966150662379F7809199
:1040E00074008F70806D809374008091740084FFE1
:1040F000FCCF809174008160809374000895982FA4
:10410000FA01809174008E7F809374008091740016
:104110008F70806A809374008091740087FFFCCF59
:10412000916090937300809174008F708068809389
:1041300074008091740087FFFCCF0EC080917400E2
:104140008F70806C809374008091740087FFFCCF27
:104150008091730081936150623080F78091740088
:104160008F70806C809374008091740087FFFCCF07
:10417000809173008083809174008F70806D809334
:1041800074008091740081608093740008950F938F
:104190001F93982FFA01809174008E7F8093740092
:1041A000809174008F70806A809374008091740095
:1041B00087FFFCCF6623E9F0892F8E7F8093730001
:1041C000809174008F708068809374008091740077
:1041D00087FFFCCF819180937300809174008F7072
:1041E0008068809374008091740087FFFCCF6150D9
:1041F00089F72223D9F1809174008F70806A8093AF
:1042000074008091740087FFFCCF916090937300DD
:10421000809174008F708068809374008091740026
:1042200087FFFCCF922FF8010EC0809174008F7031
:10423000806C809374008091740087FFFCCF809124
:10424000730081939150923080F72150F801E20F72
:10425000F11D809174008F70806C80937400809148
:10426000740087FFFCCF809173008083809174007D
:104270008F70806D809374008091740084FFFCCFF8
:10428000809174008160809374001F910F91089554
:104290001F920F920FB60F920BB60F9211242F930D
:1042A0003F934F935F936F937F938F939F93AF93BE
:1042B000BF93EF93FF9380917100887F803609F45C
:1042C000A0C0813670F5883209F45FC0893298F455
:1042D000803109F457C0813138F4882309F4F1C0E2
:1042E000883009F0F8C04EC0883109F44EC08032E1
:1042F00009F0F1C0E6C0803409F477C0813438F4A5
:10430000803309F4DEC0883309F0E5C05DC0803534
:1043100009F45FC0883509F44AC0883409F0DBC06D
:10432000D0C0883909F4C1C08939B0F4883709F49C
:1043300068C0893738F4883609F463C0803709F0DB
:10434000CAC05FC0883809F4B0C0803909F462C0BF
:10435000803809F0C0C05EC0803B09F47DC0813B5D
:1043600038F4803A09F465C0883A09F0B4C074C0E2
:10437000803C09F4A1C0883C09F49EC0883B09F048
:10438000AAC07EC080912B020FC090914C028091F8
:104390004D02981708F095C0E92FF0E0E45DFD4F5D
:1043A00080819F5F90934C02809373007EC08091C8
:1043B0006E0290917300E82FF0E0E25BFD4F908376
:1043C0008F5F80936E027DC0809174008F708068D3
:1043D0007CC080916E0290917300E82FF0E0E25B68
:1043E000FD4F90838F5F80936E0220916E0230E0CC
:1043F00080916F0290E00197281739070CF055C0A3
:104400004FC085E090E090932A0280932902109299
:104410006E0246C080916E0290917300E82FF0E02A
:10442000E25BFD4F90838F5F80936E028032E8F5F0
:1044300037C0809174008F70806C80937400E0911D
:104440007002F0917102309709F441C080916E02C0
:104450006EE472E009953BC084E090E090932A02FC
:1044600080932902E0917202F0917302309731F04B
:1044700080E26CE272E0099580934D0210924C024A
:1044800090914C02E92FF0E0E45DFD4F8081809334
:1044900073009F5F90934C0280914D02981728F40F
:1044A000809174008F70806C04C0809174008F7054
:1044B0008068809374000FC0809174008F70806C4E
:1044C00004C0809174008F70806D8093740010928E
:1044D0002A0210922902FF91EF91BF91AF919F9113
:1044E0008F917F916F915F914F913F912F910F909D
:1044F0000BBE0F900FBE0F901F901895EF92FF927A
:104500000F931F937B018C0120E030E040E050E0EE
:104510000E94C15C88231CF490E88FEB0FC0C80197
:10452000B70120E030E040E050E00E94065F18163E
:104530001CF090E080E002C090E88FE320E030E0E3
:10454000492F582FB901CA011F910F91FF90EF9089
:104550000895AF92BF92CF92DF92EF92FF920F93A6
:104560001F9359016A01A80197010E94115FA601DA
:1045700095010E94C85C1F910F91FF90EF90DF9012
:10458000CF90BF90AF900895AF92BF92CF92DF923D
:10459000EF92FF920F931F937B018C018091220574
:1045A000843639F0853608F46EC0853609F06BC064
:1045B00033C0C801B7019F7720E030E040E452E407
:1045C0000E94065F18160CF074C0C801B70120E005
:1045D00030E040E050E00E94C15C88232CF460E0B1
:1045E00070E080E89FEB13C0C801B70120E030E025
:1045F00040E050E00E94065F18162CF060E070E08A
:1046000080E090E004C060E070E080E89FE320E09C
:1046100030E040E452E432C0C801B7019F7720E0A7
:1046200030E040E053E40E94065F18160CF041C0F1
:10463000C801B70120E030E040E050E00E94C15CDA
:1046400088232CF460E070E080E89FEB13C0C80181
:10465000B70120E030E040E050E00E94065F18160D
:104660002CF060E070E080E090E004C060E070E07A
:1046700080E89FE320E030E040E053E40E94115FD7
:104680007B018C0116C06091A2057091A30588275B
:1046900077FD8095982F0E94A15D5B016C01C80198
:1046A000B701A60195010E94065F181614F4860151
:1046B0007501C801B7010E946A5DCB011F910F917E
:1046C000FF90EF90DF90CF90BF90AF90089597FF4D
:1046D00003C02FEF3FEF05C0009711F081E090E09D
:1046E0009C01C9010895AF92BF92CF92DF92EF92E1
:1046F000FF920F931F937B018C0159016A0150585F
:104700000E94C15C882374F4C601B501A60195011D
:104710000E94FB5B9B01AC01C801B7010E94FB5BDF
:104720007B018C01C801B701A60195010E94065FBB
:10473000181684F4C601B50120E030E040E050ECEA
:104740000E94115F9B01AC01C801B7010E94FB5B95
:104750007B018C01B701C8011F910F91FF90EF9071
:10476000DF90CF90BF90AF9008950895EF92FF92A1
:104770000F931F9360911405709115058091160594
:104780009091170520910C0530910D0540910E0573
:1047900050910F050E94FA5B7B018C016093180514
:1047A0007093190580931A0590931B0520E030E063
:1047B00044E353EC0E94C15C882384F4C801B70130
:1047C00020E030E044EB53E40E94FB5B609318056B
:1047D0007093190580931A0590931B05E0901805B6
:1047E000F090190500911A0510911B05C801B70139
:1047F00020E030E044E353E40E94065F181684F49E
:10480000C801B70120E030E044EB53E40E94FA5BBA
:10481000609318057093190580931A0590931B05F2
:10482000209118053091190540911A0550911B05EA
:10483000B901CA011F910F91FF90EF90089597FF62
:1048400002C0860F911D70E00E94266008952BED36
:104850003FE049E450E40E94115F20E030E044E38F
:1048600053E40E94C85C089520E030E044E353E440
:104870000E94115F2BED3FE049E450E40E94C85CC8
:104880000895AF92BF92CF92DF92EF92FF920F9373
:104890001F9359016A01A8019701161617061806F9
:1048A000190684F41A141B041C041D0414F080E07F
:1048B00015C01E141F041006110614F081E00EC06E
:1048C00082E00CC0D7FC02C083E008C0222757FD5D
:1048D0002395332744275527822F8C5F1F910F91F3
:1048E000FF90EF90DF90CF90BF90AF90089590E051
:1048F000880F991FA0E7B5E0FC01EE0FFF1FEA0F3C
:10490000FB1F608171810196880F991FA80FB91F45
:104910008C9111969C91089590E0880F991FAAE8B8
:10492000B5E0FC01EE0FFF1FEA0FFB1F60817181F4
:104930000196880F991FA80FB91F8C9111969C9111
:1049400008954F925F926F927F928F929F92AF9253
:10495000BF92CF92DF92EF92FF920F931F933B0192
:104960004C0129019A01B801641B750B882777FD5A
:104970008095982FA401421B530B9A01442737FDC1
:104980004095542F0E94F35F5B016C01E418F50819
:10499000B701882777FD8095982F641875089301D3
:1049A000442737FD4095542F0E94F35FA60EB71E93
:1049B000C81ED91EB501C6011F910F91FF90EF903F
:1049C000DF90CF90BF90AF909F908F907F906F902F
:1049D0005F904F9008952FEF4F3F520771F0413095
:1049E000510511F080E008956817790714F46A5FA3
:1049F0007F4F262F281B822F08958617970714F4C0
:104A000066507040861B08952F923F924F925F929E
:104A10006F927F928F929F92AF92BF92CF92DF92CE
:104A2000EF92FF920F931F933B012A011901580146
:104A3000E21AF30A0027F7FC0095102F9C01241BB3
:104A4000350B442737FD4095542FC801B7010E940C
:104A5000F35F7B018C01A418B508CC24B7FCC0948B
:104A6000DC2C62187308882477FC8094982CC6018B
:104A7000B501A40193010E94F35FE61AF70A080B3F
:104A8000190BB701C8011F910F91FF90EF90DF90B4
:104A9000CF90BF90AF909F908F907F906F905F90DE
:104AA0004F903F902F9008952F923F924F925F9298
:104AB0006F927F928F929F92AF92BF92CF92DF922E
:104AC000EF92FF920F931F933B014C0129011A01B2
:104AD000B801641B750B882777FD8095982F93018B
:104AE00024193509442737FD4095542F0E94F35F60
:104AF0005B016C01E418F508B701882777FD809504
:104B0000982F940122193309442737FD4095542FDB
:104B10000E94F35FA61AB70AC80AD90AB501C601EE
:104B20001F910F91FF90EF90DF90CF90BF90AF90CB
:104B30009F908F907F906F905F904F903F902F90BD
:104B400008952F923F924F925F926F927F928F9231
:104B50009F92AF92BF92CF92DF92EF92FF920F930C
:104B60001F93DF93CF93CDB7DEB728970FB6F89496
:104B7000DEBF0FBECDBF7B015C014090D8045090DA
:104B8000D9042090DA043090DB048090DC0490900B
:104B9000DD046090DE047090DF046091EA0470919F
:104BA000EB0466197709882777FD8095982F970180
:104BB00028193909442737FD4095542F0E94F35F87
:104BC0006D837E838F8398876091E8047091E904F8
:104BD00068197909882777FD8095982F95012619FE
:104BE0003709442737FD4095542F0E94F35F2D81EC
:104BF0003E814F815885261B370B480B590B2D835F
:104C00003E834F8358878090E0049090E104609049
:104C1000E2047090E3046091EE047091EF04661971
:104C20007709882777FD8095982F970128193909EA
:104C3000442737FD4095542F0E94F35F69837A83A0
:104C40008B839C836091EC047091ED046819790961
:104C5000882777FD8095982F9501261937094427D5
:104C600037FD4095542F0E94F35F29813A814B8193
:104C70005C81261B370B480B590B29833A834B83E6
:104C80005C836091E6047091E704621973098827D8
:104C900077FD8095982FE418F5080027F7FC00951C
:104CA000102FA80197010E94F35F7B018C01609196
:104CB000E4047091E50464197509882777FD8095EF
:104CC000982FA218B308CC24B7FCC094DC2CA60102
:104CD00095010E94F35FE61AF70A080B190B1E14E0
:104CE0001F0410061106C4F48D819E81AF81B88522
:104CF000181619061A061B0614F080E025C0298133
:104D00003A814B815C81121613061406150614F0C5
:104D100081E01AC082E018C08D819E81AF81B88584
:104D2000B7FD02C083E010C029813A814B815C81CC
:104D3000222757FD239533274427552729833A8374
:104D40004B835C8389818C5F28960FB6F894DEBF15
:104D50000FBECDBFCF91DF911F910F91FF90EF90CC
:104D6000DF90CF90BF90AF909F908F907F906F908B
:104D70005F904F903F902F9008950F931F93CF9384
:104D8000DF93EC018B018FEF4F3F580759F1413012
:104D9000510511F040E04BC06C177D0714F40A5F19
:104DA0001F4F6091F4047091F5048091F604909186
:104DB000F7040E94A125E82F9E0140E00FC037FDB7
:104DC00002C0C90102C0C901069666E070E00E94F7
:104DD0002660E81709F441E02F5F3F4F02171307E1
:104DE00074F725C0C617D70714F406501040609119
:104DF000F4047091F5048091F6049091F7040E94F8
:104E0000A125E82F9E0140E00FC037FD02C0C90177
:104E100002C0C901069666E070E00E942660E817AD
:104E200009F441E0215030402017310774F7842FF6
:104E3000DF91CF911F910F9108959B01AC016AE919
:104E400079ED8DEE93E40E94C85C08959B01AC015E
:104E500063E373EB8DED94E40E94C85C089590E0E9
:104E6000880F991FA8EDB4E0FC01EE0FFF1FEA0FB9
:104E7000FB1F608171810196880F991FA80FB91FD0
:104E80008C9111969C910895EF92FF920F931F932E
:104E90007B018C01CA01B901A80197010E94FB5B4B
:104EA0007B018C0123E333EA4AE754E40E94C15CAE
:104EB00088235CF40F2EF3E3EF2EF3EAFF2EFAE7DC
:104EC0000F2FF4E41F2FF02D14C0C801B70123E306
:104ED0003BE045EA54E40E94065F181654F40F2E96
:104EE000F3E3EF2EFBE0FF2EF5EA0F2FF4E41F2F84
:104EF000F02DB701C8011F910F91FF90EF90089519
:104F0000E82FF0E0EE0FFF1FE152FD4F8081869504
:104F10000895E82FF0E0EE0FFF1FE252FD4F808171
:104F20008F710895E82FF0E0EE0FFF1FE252FD4F62
:104F3000908192959695977081818170880F880FE6
:104F4000880F892B0895853030F0853019F421E0E1
:104F500030E003C008952FEF3FEFC901089590E0BE
:104F6000880F991FDC01A252BD4F2C912F71FC01BB
:104F70002130A1F0E152FD4F80818695803110F5FE
:104F80009C9192959695977011968C918170880F4F
:104F9000880F880F892BB1F086E10895E152FD4F0B
:104FA00080818695803180F49C919295969597703A
:104FB00011968C918170880F880F880F892B21F0B2
:104FC00085E1089584E1089587E1089560E070E047
:104FD00080E090E00895089580912305873151F095
:104FE000883118F48531B1F408C08A3119F08C3158
:104FF00089F413C020E030E012C08091A2059091A6
:10500000A3058034910549F08036910531F02DEDEE
:1050100030E005C02EE630E002C023E930E0C901EF
:1050200008958DEC90E09093A3058093A2051092D3
:10503000A5051092A4050E946B1760932805709334
:10504000290580932A0590932B050E946B17609386
:105050002C0570932D0580932E0590932F0588ECD9
:1050600090E09093A7058093A60585E092E0909349
:105070008905809388058FEF9FEF90935705809364
:1050800056058DEC9CECACECBFE38093D301909380
:10509000D401A093D501B093D60181E0809355054A
:1050A00080935A0585E18093230508950E946B172C
:1050B000609328057093290580932A0590932B050A
:1050C00082E08093230560910C0570910D0580911D
:1050D0000E0590910F050E946A0E089585E6809353
:1050E00022050E946B176093280570932905809311
:1050F0002A0590932B0581E08093230508950E9453
:105100006B17609328057093290580932A05909367
:105110002B0585E6809322051092230560910C05EE
:1051200070910D0580910E0590910F050E946A0EF9
:1051300008950E944C0DA0E0B0E0BC01CD010E949A
:105140009F5D2BE734E14EEC5FE30E94C85C20E0FA
:1051500030E040E855E40E94115F26EB33EB4DED63
:1051600052E40E94C85C08952F923F924F925F9242
:105170006F927F928F929F92AF92BF92CF92DF9267
:10518000EF92FF920F931F93DF93CF9300D0CDB791
:10519000DEB70983EA8215012601FC016B014A0191
:1051A00039010E1519F400E010E013C180912205B9
:1051B0008A3019F401E010E00CC1BF01882777FDA7
:1051C0008095982F0E94A15D7B018C01B6018827F4
:1051D00077FD8095982F0E94A15D9B01AC01C801CD
:1051E000B7010E946E5C20E030E044E353E40E948B
:1051F000115F2BED3FE049E450E40E94C85C5B0185
:105200006C01B401882777FD8095982F0E94A15DDD
:105210007B018C01B301882777FD8095982F0E9430
:10522000A15D9B01AC01C801B7010E946E5C20E04A
:1052300030E044E353E40E94115F2BED3FE049E48A
:1052400050E40E94C85CA60195010E94FA5B7B01B4
:105250008C0120E030E044E353EC0E94C15C8823E1
:1052600054F4C801B70120E030E044EB53E40E945D
:10527000FB5B7B018C01C801B70120E030E044E317
:1052800053E40E94065F181654F4C801B70120E0E9
:1052900030E044EB53E40E94FA5B7B018C01C801CF
:1052A000B70120E030E040E050E00E94C15C87FDA3
:1052B00003C0370148010AC0C801B70120E030E04F
:1052C00044EB53E40E94FB5B3B014C01C801B70176
:1052D00020E030E040E050E00E94065F181654F4F1
:1052E000C801B70120E030E044EB53E40E94FA5BD0
:1052F0007B018C01C201B101A60195010E94FA5BFC
:105300005B016C0120E030E044E353EC0E94C15C9F
:10531000882354F4C601B50120E030E044EB53E4A7
:105320000E94FB5B5B016C01C601B50120E030E02F
:1053300044E353E40E94065F181654F4C601B50115
:1053400020E030E044EB53E40E94FA5B5B016C0127
:10535000C601B50120E030E040E050E00E94065F69
:1053600088235CF0C401B30120E030E043E453E45F
:105370000E94C15C87FD0EC00AC0C801B70120E0D1
:1053800030E043E453EC0E94065F18161CF40FEF64
:105390001FEF02C001E010E0898190E06A8170E0B7
:1053A000A8010E94BD268823A1F0809122058A30A1
:1053B00081F06091F4047091F5048091F60490916D
:1053C000F7040E94A1259981891719F0109501957C
:1053D0001F4FC8010F900F90CF91DF911F910F9138
:1053E000FF90EF90DF90CF90BF90AF909F908F9005
:1053F0007F906F905F904F903F902F9008952F92E5
:105400003F924F925F926F927F928F929F92AF9254
:10541000BF92CF92DF92EF92FF920F931F933B01C7
:105420004C0119012A01570168010E94A125082F8A
:10543000C201B1010E94A125E82EC401B301A2015D
:1054400091010E94B4281F910F91FF90EF90DF907F
:10545000CF90BF90AF909F908F907F906F905F9014
:105460004F903F902F900895AF92BF92CF92DF92CE
:10547000EF92FF920F931F9390E0AA2797FDA095BC
:10548000BA2FBC01CD010E94A15D20E030E040E7D1
:1054900052E40E94115F2BED3FE049E450E40E948A
:1054A000115F20E030E044E353E40E94C85C7B01DC
:1054B0008C01C8010E94C55C5B016C01B701C80189
:1054C0000E94745F2AE939ED4DEE53E40E94115FAA
:1054D0000E946A5D162F072FC601B5012AE939ED32
:1054E0004DEE53E40E94115F0E946A5D812F902F60
:1054F0001F910F91FF90EF90DF90CF90BF90AF90F2
:1055000008958F929F92AF92BF92CF92DF92EF92C7
:10551000FF920F931F936091040570910505809190
:105520000605909107050E94A125D82E80911D05A2
:105530008F3F09F4A3C0813009F03DC183E0D81644
:1055400009F441C184E0D81609F437C185E0D816C2
:1055500009F43BC183E00E94342AC62EB72EA82E40
:10556000992E0E94A10E7B018C0120E030E044E3E3
:1055700053EC0E94C15C882354F4C801B70120E0B9
:1055800030E044EB53E40E94FB5B7B018C01C801DB
:10559000B70120E030E044E353E40E94065F1816B0
:1055A00054F4C801B70120E030E044EB53E40E941A
:1055B000FA5B7B018C016091040570910505809177
:1055C0000605909107052C2D3B2D4A2D592D0E9443
:1055D000FF29AC018D2D90E063E070E00E94EB2488
:1055E000882E85E00E94342AC62EB72EA82E992E2A
:1055F0000E94A10E7B018C0120E030E044E353ECDB
:105600000E94C15C882354F4C801B70120E030E057
:1056100044EB53E40E94FB5B7B018C01C801B701A2
:1056200020E030E044E353E40E94065F181654F48F
:10563000C801B70120E030E044EB53E40E94FA5B7C
:105640007B018C0160910405709105058091060530
:10565000909107052C2D3B2D4A2D592D0E94FF2995
:10566000AC018D2D90E065E070E00E94EB2488167F
:1056700008F4A9C0881508F0A0C0A7C0DD2009F46F
:105680009AC081E0D81609F49AC082E0D81609F4CD
:1056900098C080E00E94342AC62EB72EA82E992EDC
:1056A0000E94A10E7B018C0120E030E044E353EC2A
:1056B0000E94C15C882354F4C801B70120E030E0A7
:1056C00044EB53E40E94FB5B7B018C01C801B701F2
:1056D00020E030E044E353E40E94065F181654F4DF
:1056E000C801B70120E030E044EB53E40E94FA5BCC
:1056F0007B018C0160910405709105058091060580
:10570000909107052C2D3B2D4A2D592D0E94FF29E4
:10571000AC018D2D90E060E070E00E94EB24882EBB
:1057200082E00E94342AC62EB72EA82E992E0E94FF
:10573000A10E7B018C0120E030E044E353EC0E9499
:10574000C15C882354F4C801B70120E030E044EB89
:1057500053E40E94FB5B7B018C01C801B70120E090
:1057600030E044E353E40E94065F181654F4C80185
:10577000B70120E030E044EB53E40E94FA5B7B0188
:105780008C0160910405709105058091060590914A
:1057900007052C2D3B2D4A2D592D0E94FF29AC01C8
:1057A0008D2D90E062E070E00E94EB24881618F0E6
:1057B000881528F406C080E009C084E007C081E0B5
:1057C00005C082E003C083E001C085E01F910F9116
:1057D000FF90EF90DF90CF90BF90AF909F908F9011
:1057E00008957F928F929F92AF92BF92CF92DF9255
:1057F000EF92FF920F931F93CF93DF936091040575
:105800007091050580910605909107050E94A125DC
:10581000782EA82EBB24E50121978FEFCF3FD80724
:1058200011F4C5E0D0E06091F4047091F50480912A
:10583000F6049091F7040E94A125D82E8715F9F05F
:10584000F501EE0FFF1FE252FD4F80818F71813015
:1058500009F0CEC390819295969597708181817061
:10586000880F880F880F892B51F0F501EE0FFF1F6D
:10587000E152FD4F80818695853008F4B9C3C5019A
:10588000019666E070E00E942660882ECE0166E0F8
:1058900070E00E942660982EC501029666E070E0D6
:1058A0000E942660C82ED816B1F5A82DB0E0FD01E3
:1058B000EE0FFF1FE252FD4F9081929596959770E3
:1058C00081818170880F880F880F892B49F0AA0F7A
:1058D000BB1FA152BD4F8C918695833008F483C3C2
:1058E000A92DB0E0FD01EE0FFF1FE252FD4F9081A8
:1058F00092959695977081818170880F880F880F97
:10590000892B49F0AA0FBB1FA152BD4F8C918695E0
:10591000833008F46AC3E82CFF24D701AA0FBB1F09
:10592000A252BD4F9C9192959695977011968C912D
:1059300011978170880F880F880F892B81F0F701EC
:10594000EE0FFF1FE152FD4F80818695833038F4C2
:105950008C918F71813019F0D81409F044C3092D4E
:1059600010E0D801AA0FBB1FA252BD4F9C91929587
:105970009695977011968C9111978170880F880F6A
:10598000880F892B81F0F801EE0FFF1FE152FD4FC8
:1059900080818695833038F48C918F71813019F035
:1059A000D91409F022C3F701EE0FFF1FE252FD4F99
:1059B00080818F718130A1F090819295969597703A
:1059C00081818170880F880F880F892B49F0F7013A
:1059D000EE0FFF1FE152FD4F808186958730E8F082
:1059E000F701EE0FFF1FE252FD4F80818F71813072
:1059F000B9F4908192959695977081818170880F06
:105A0000880F880F892B61F0F701EE0FFF1FE1521D
:105A1000FD4F80818695833018F4D81409F0E3C2D5
:105A2000DC1409F03DC0F701EE0FFF1FE252FD4FFD
:105A300080818F718130A1F09081929596959770B9
:105A400081818170880F880F880F892B49F0F701B9
:105A5000EE0FFF1FE152FD4F808186958A30E8F0FE
:105A6000F701EE0FFF1FE252FD4F80818F718130F1
:105A7000B9F4908192959695977081818170880F85
:105A8000880F880F892B61F0F701EE0FFF1FE1529D
:105A9000FD4F80818695863018F4D81409F0A3C292
:105AA000F801EE0FFF1FE252FD4F80818F718130B0
:105AB000A1F0908192959695977081818170880F61
:105AC000880F880F892B49F0F801EE0FFF1FE15274
:105AD000FD4F808186958730E8F0F801EE0FFF1FBB
